:020000040800F2
:100000000000052425040008750400087504000894
:10001000750400087504000875040008000000005D
:10002000000000000000000000000000750400084F
:1000300000000000000000007504000875040008BE
:1000400075040008750400087504000875040008AC
:10005000750400087504000875040008750400089C
:10006000750400087504000875040008750400088C
:10007000750400087504000875040008750400087C
:10008000750400087504000875040008750400086C
:10009000750400087504000875040008750400085C
:1000A000750400087504000875040008750400084C
:1000B000750400087504000875040008750400083C
:1000C000750400087504000875040008750400082C
:1000D000750400087504000875040008750400081C
:1000E000750400087504000800000000750400088D
:1000F00075040008750400087504000875040008FC
:1001000075040008750400087504000875040008EB
:1001100075040008750400087504000875040008DB
:1001200075040008750400087504000875040008CB
:1001300075040008750400087504000875040008BB
:1001400000000000000000000000000000000000AF
:10015000750400087504000875040008750400089B
:10016000750400087504000875040008750400088B
:1001700075040008750400087504000800000000FC
:10018000750400087504000875040008750400086B
:10019000750400087504000875040008750400085B
:1001A00075040008750400087504000800000000CC
:1001B000750400087504000875040008750400083B
:1001C000750400087504000800000000000000002D
:1001D000000000000000000075040008000000009E
:1001E000000000000000000000000000000000000F
:1001F00000000000000000007504000875040008FD
:10020000750400087504000800000000750400086B
:1002100075040008750400087504000875040008DA
:1002200075040008000000007504000800000000CC
:10023000750400087504000800000000750400083B
:1002400075040008750400087504000875040008AA
:10025000750400087504000875040008750400089A
:10026000750400087504000875040008750400088A
:1002700075040008750400087504000800000000FB
:10028000750400087504000875040008750400086A
:10029000000000007504000875040008000000005C
:1002A00000000000750400087504000875040008CB
:1002B000750400087504000875040008750400083A
:0C02C000750400087504000875040008AF
:1002CC0010B5054C237833B9044B13B10448AFF384
:1002DC0000800123237010BD0400002400000000E6
:1002EC007804000808B5034B1BB103490348AFF36E
:1002FC00008008BD000000000800002478040008FD
:10030C0070B50D4D0D4C641BA4100026A64209D1EE
:10031C000B4D0C4C00F0AAF8641BA4100026A6424E
:10032C0005D170BD55F8043B98470136EEE755F8FA
:10033C00043B98470136F2E790040008900400084B
:10034C00900400089804000870477047024B13B1E2
:10035C00024800F005B8704700000000790300085F
:10036C00002301461A46184600F014B838B5074D5C
:10037C00074C641BA4101CB9BDE8384000F07CB8D5
:10038C00013C55F824309847F5E700BF9804000865
:10039C009C0400082DE9F047DFF874A00646DAF853
:1003AC00000098460F469146FFF7CEFF164B1C688F
:1003BC000CB9164C1C606568DAF800001F2D05DDC1
:1003CC00FFF7C3FF4FF0FF30BDE8F0879EB104EBA1
:1003DC0085010122C1F88890D4F88831AA401343D2
:1003EC00C4F88831022EC1F8088102BFD4F88C31D0
:1003FC001343C4F88C316B1C0235636044F82570D0
:10040C00FFF7A3FF0020DFE72400002428000024CE
:10041C0000000024FEE700000D488546AFF3008085
:10042C000C480D490D4A002302E0D458C450043343
:10043C00C4188C42F9D30A4A0A4C002301E0136019
:10044C000432A242FBD3FFF75BFFFFF7E3FFFEE7AB
:10045C000000052400000024040000249C04000873
:10046C0004000024B8010024FEE70000F8B500BF2A
:10047C00F8BC08BC9E467047F8B500BFF8BC08BC79
:04048C009E467047D1
:0804900059030008F102000805
:04049800CD02000889
:04049C002000002418
:0400000508000425C6
:00000001FF
